{
  "_format": "hh3-artifact-1",
  "contractName": "VotingLogic",
  "sourceName": "contracts/VotingLogic.sol",
  "abi": [
    {
      "inputs": [],
      "stateMutability": "nonpayable",
      "type": "constructor"
    },
    {
      "anonymous": false,
      "inputs": [
        {
          "indexed": false,
          "internalType": "address",
          "name": "adminAddress",
          "type": "address"
        }
      ],
      "name": "AdminRegistered",
      "type": "event"
    },
    {
      "anonymous": false,
      "inputs": [
        {
          "indexed": false,
          "internalType": "address",
          "name": "candidateAddress",
          "type": "address"
        },
        {
          "indexed": false,
          "internalType": "string",
          "name": "name",
          "type": "string"
        }
      ],
      "name": "CandidateRegistered",
      "type": "event"
    },
    {
      "anonymous": false,
      "inputs": [
        {
          "indexed": false,
          "internalType": "enum VotingLogic.VotingStatus",
          "name": "newStatus",
          "type": "uint8"
        },
        {
          "indexed": false,
          "internalType": "address",
          "name": "whoChanged",
          "type": "address"
        }
      ],
      "name": "StatusChanged",
      "type": "event"
    },
    {
      "anonymous": false,
      "inputs": [
        {
          "indexed": false,
          "internalType": "address",
          "name": "voter",
          "type": "address"
        },
        {
          "indexed": false,
          "internalType": "address",
          "name": "candidate",
          "type": "address"
        },
        {
          "indexed": false,
          "internalType": "uint256",
          "name": "newVoteCount",
          "type": "uint256"
        }
      ],
      "name": "Voted",
      "type": "event"
    },
    {
      "inputs": [
        {
          "internalType": "uint256",
          "name": "",
          "type": "uint256"
        }
      ],
      "name": "candidates",
      "outputs": [
        {
          "internalType": "address",
          "name": "",
          "type": "address"
        }
      ],
      "stateMutability": "view",
      "type": "function"
    },
    {
      "inputs": [
        {
          "internalType": "enum VotingLogic.VotingStatus",
          "name": "_newStatus",
          "type": "uint8"
        }
      ],
      "name": "changeStatus",
      "outputs": [],
      "stateMutability": "nonpayable",
      "type": "function"
    },
    {
      "inputs": [],
      "name": "currentLeader",
      "outputs": [
        {
          "internalType": "address",
          "name": "",
          "type": "address"
        }
      ],
      "stateMutability": "view",
      "type": "function"
    },
    {
      "inputs": [],
      "name": "currentStatus",
      "outputs": [
        {
          "internalType": "enum VotingLogic.VotingStatus",
          "name": "",
          "type": "uint8"
        }
      ],
      "stateMutability": "view",
      "type": "function"
    },
    {
      "inputs": [],
      "name": "getAllResults",
      "outputs": [
        {
          "components": [
            {
              "internalType": "string",
              "name": "userName",
              "type": "string"
            },
            {
              "internalType": "address",
              "name": "userAddress",
              "type": "address"
            },
            {
              "internalType": "bool",
              "name": "userCandidate",
              "type": "bool"
            },
            {
              "internalType": "bool",
              "name": "userAdmin",
              "type": "bool"
            },
            {
              "internalType": "uint256",
              "name": "votesCount",
              "type": "uint256"
            }
          ],
          "internalType": "struct VotingLogic.User[]",
          "name": "",
          "type": "tuple[]"
        }
      ],
      "stateMutability": "view",
      "type": "function"
    },
    {
      "inputs": [
        {
          "internalType": "address",
          "name": "_candidate",
          "type": "address"
        }
      ],
      "name": "getCandidate",
      "outputs": [
        {
          "components": [
            {
              "internalType": "string",
              "name": "userName",
              "type": "string"
            },
            {
              "internalType": "address",
              "name": "userAddress",
              "type": "address"
            },
            {
              "internalType": "bool",
              "name": "userCandidate",
              "type": "bool"
            },
            {
              "internalType": "bool",
              "name": "userAdmin",
              "type": "bool"
            },
            {
              "internalType": "uint256",
              "name": "votesCount",
              "type": "uint256"
            }
          ],
          "internalType": "struct VotingLogic.User",
          "name": "",
          "type": "tuple"
        }
      ],
      "stateMutability": "view",
      "type": "function"
    },
    {
      "inputs": [
        {
          "internalType": "uint256",
          "name": "_index",
          "type": "uint256"
        }
      ],
      "name": "getCandidateAddress",
      "outputs": [
        {
          "internalType": "address",
          "name": "",
          "type": "address"
        }
      ],
      "stateMutability": "view",
      "type": "function"
    },
    {
      "inputs": [],
      "name": "getCandidateLength",
      "outputs": [
        {
          "internalType": "uint256",
          "name": "",
          "type": "uint256"
        }
      ],
      "stateMutability": "view",
      "type": "function"
    },
    {
      "inputs": [],
      "name": "getWinner",
      "outputs": [
        {
          "components": [
            {
              "internalType": "string",
              "name": "userName",
              "type": "string"
            },
            {
              "internalType": "address",
              "name": "userAddress",
              "type": "address"
            },
            {
              "internalType": "bool",
              "name": "userCandidate",
              "type": "bool"
            },
            {
              "internalType": "bool",
              "name": "userAdmin",
              "type": "bool"
            },
            {
              "internalType": "uint256",
              "name": "votesCount",
              "type": "uint256"
            }
          ],
          "internalType": "struct VotingLogic.User",
          "name": "",
          "type": "tuple"
        }
      ],
      "stateMutability": "view",
      "type": "function"
    },
    {
      "inputs": [
        {
          "internalType": "address",
          "name": "_user",
          "type": "address"
        }
      ],
      "name": "hasUserVoted",
      "outputs": [
        {
          "internalType": "bool",
          "name": "",
          "type": "bool"
        }
      ],
      "stateMutability": "view",
      "type": "function"
    },
    {
      "inputs": [],
      "name": "maxVotes",
      "outputs": [
        {
          "internalType": "uint256",
          "name": "",
          "type": "uint256"
        }
      ],
      "stateMutability": "view",
      "type": "function"
    },
    {
      "inputs": [
        {
          "internalType": "string",
          "name": "_name",
          "type": "string"
        }
      ],
      "name": "registerCandidate",
      "outputs": [],
      "stateMutability": "nonpayable",
      "type": "function"
    },
    {
      "inputs": [
        {
          "internalType": "address",
          "name": "_candidate",
          "type": "address"
        }
      ],
      "name": "vote",
      "outputs": [],
      "stateMutability": "nonpayable",
      "type": "function"
    }
  ],
  "bytecode": "0x608060405234801561000f575f5ffd5b506040805160e081018252600560a082019081526430b236b4b760d91b60c083015281523360208083018290525f838501819052600160608501526080840181905291825260029052919091208151819061006a90826101ad565b50602082015160018083018054604086015160608701511515600160a81b0260ff60a81b19911515600160a01b026001600160a81b03199093166001600160a01b03909616959095179190911716929092179091556080909201516002909101555f80549091829160ff1916908202179055506040513381527fac0f15283d37631c15b481bc07dc402bcfc030956bcd94b5585f71d92e84c3da9060200160405180910390a1610267565b634e487b7160e01b5f52604160045260245ffd5b600181811c9082168061013d57607f821691505b60208210810361015b57634e487b7160e01b5f52602260045260245ffd5b50919050565b601f8211156101a857805f5260205f20601f840160051c810160208510156101865750805b601f840160051c820191505b818110156101a5575f8155600101610192565b50505b505050565b81516001600160401b038111156101c6576101c6610115565b6101da816101d48454610129565b84610161565b6020601f82116001811461020c575f83156101f55750848201515b5f19600385901b1c1916600184901b1784556101a5565b5f84815260208120601f198516915b8281101561023b578785015182556020948501946001909201910161021b565b508482101561025857868401515f19600387901b60f8161c191681555b50505050600190811b01905550565b61114e806102745f395ff3fe608060405234801561000f575f5ffd5b50600436106100cb575f3560e01c806395bc953811610088578063b7adcf1d11610063578063b7adcf1d146101c9578063ee08ece5146101dc578063ef8a9235146101ef578063f7522a8314610208575f5ffd5b806395bc9538146101905780639eb88db6146101a3578063ac4bd53a146101b6575f5ffd5b80633477ee2e146100cf5780636dd7d8ea146100ff57806376d9be0814610114578063777c3acf146101295780637fabe80a146101405780638e7ea5b21461017b575b5f5ffd5b6100e26100dd366004610ce8565b610210565b6040516001600160a01b0390911681526020015b60405180910390f35b61011261010d366004610cff565b610238565b005b61011c61044a565b6040516100f69190610dae565b61013260055481565b6040519081526020016100f6565b61016b61014e366004610cff565b6001600160a01b03165f9081526001602052604090205460ff1690565b60405190151581526020016100f6565b610183610667565b6040516100f69190610e11565b61011261019e366004610e23565b6107d1565b6101126101b1366004610e55565b6108f5565b6004546100e2906001600160a01b031681565b6101836101d7366004610cff565b610ae9565b6100e26101ea366004610ce8565b610c73565b5f546101fb9060ff1681565b6040516100f69190610f3c565b600354610132565b6003818154811061021f575f80fd5b5f918252602090912001546001600160a01b0316905081565b60015f5460ff16600281111561025057610250610f08565b146102975760405162461bcd60e51b81526020600482015260126024820152712b37ba34b7339034b9903737ba1037b832b760711b60448201526064015b60405180910390fd5b6001600160a01b0381165f90815260026020526040902060010154600160a01b900460ff166102fa5760405162461bcd60e51b815260206004820152600f60248201526e4e6f7420612063616e64696461746560881b604482015260640161028e565b335f9081526001602052604090205460ff16156103495760405162461bcd60e51b815260206004820152600d60248201526c105b1c9958591e481d9bdd1959609a1b604482015260640161028e565b6001600160a01b0381165f90815260026020819052604082200180549161036f83610f50565b9091555050335f908152600160208181526040808420805460ff19169093179092556005546001600160a01b0385168452600291829052919092209091015411156103e7576001600160a01b0381165f8181526002602081905260409091200154600555600480546001600160a01b03191690911790555b6001600160a01b0381165f8181526002602081815260409283902090910154825133815291820193909352908101919091527f174ba19ba3c8bb5c679c87e51db79fff7c3f04bb84c1fd55b7dacb470b674aa6906060015b60405180910390a150565b335f90815260026020526040902060010154606090600160a81b900460ff166104a15760405162461bcd60e51b81526020600482015260096024820152682737ba1030b236b4b760b91b604482015260640161028e565b6003545f9067ffffffffffffffff8111156104be576104be610e41565b60405190808252806020026020018201604052801561051657816020015b6040805160a08101825260608082525f6020808401829052938301819052908201819052608082015282525f199092019101816104dc5790505b5090505f5b6003548110156106615760025f6003838154811061053b5761053b610f74565b5f9182526020808320909101546001600160a01b031683528201929092526040908101909120815160a0810190925280548290829061057990610f88565b80601f01602080910402602001604051908101604052809291908181526020018280546105a590610f88565b80156105f05780601f106105c7576101008083540402835291602001916105f0565b820191905f5260205f20905b8154815290600101906020018083116105d357829003601f168201915b505050918352505060018201546001600160a01b038116602083015260ff600160a01b8204811615156040840152600160a81b9091041615156060820152600290910154608090910152825183908390811061064e5761064e610f74565b602090810291909101015260010161051b565b50905090565b6040805160a08101825260608082525f60208301819052928201839052810182905260808101919091526004546001600160a01b03166106d85760405162461bcd60e51b815260206004820152600c60248201526b139bc81d9bdd195cc81e595d60a21b604482015260640161028e565b6004546001600160a01b03165f9081526002602052604090819020815160a0810190925280548290829061070b90610f88565b80601f016020809104026020016040519081016040528092919081815260200182805461073790610f88565b80156107825780601f1061075957610100808354040283529160200191610782565b820191905f5260205f20905b81548152906001019060200180831161076557829003601f168201915b505050918352505060018201546001600160a01b038116602083015260ff600160a01b8204811615156040840152600160a81b9091041615156060820152600290910154608090910152919050565b335f90815260026020526040902060010154600160a81b900460ff166108255760405162461bcd60e51b81526020600482015260096024820152682737ba1030b236b4b760b91b604482015260640161028e565b5f5460ff16600281111561083b5761083b610f08565b81600281111561084d5761084d610f08565b0361089a5760405162461bcd60e51b815260206004820152601760248201527f546869732073746174757320616c726561647920736574000000000000000000604482015260640161028e565b5f805482919060ff191660018360028111156108b8576108b8610f08565b02179055505f546040517f92f87171dc6d8bbdd173bcdc7ea169d972925ff5b8151a5e09cb32dc787e13289161043f9160ff909116903390610fc0565b5f5f5460ff16600281111561090c5761090c610f08565b146109645760405162461bcd60e51b815260206004820152602260248201527f43616e6e6f74206164642063616e64696461746520647572696e6720766f74696044820152616e6760f01b606482015260840161028e565b335f90815260026020526040902060010154600160a01b900460ff16156109cd5760405162461bcd60e51b815260206004820152601f60248201527f416c726561647920726567697374657265642061732063616e64696461746500604482015260640161028e565b6040805160a0810182528281523360208083018290526001838501525f6060840181905260808401819052918252600290529190912081518190610a119082611032565b5060208201516001808301805460408087015160608801511515600160a81b0260ff60a81b19911515600160a01b026001600160a81b03199094166001600160a01b039097169690961792909217919091169390931790556080909301516002909201919091556003805492830181555f527fc2575a0e9e593c00f959f8c92f12db2869c3395a3b0502d05e2516446f71f85b90910180546001600160a01b0319163390811790915590517ff7d573e0e0f72259d79708ef22494ecdc00dd3605de228ff1a79063d7547b7c29161043f9184906110ed565b6040805160a08101825260608082525f60208301819052928201839052810182905260808101919091526001600160a01b0382165f90815260026020526040902060010154600160a01b900460ff16610b7b5760405162461bcd60e51b815260206004820152601460248201527355736572206e6f7420612063616e64696461746560601b604482015260640161028e565b6001600160a01b0382165f9081526002602052604090819020815160a08101909252805482908290610bac90610f88565b80601f0160208091040260200160405190810160405280929190818152602001828054610bd890610f88565b8015610c235780601f10610bfa57610100808354040283529160200191610c23565b820191905f5260205f20905b815481529060010190602001808311610c0657829003601f168201915b505050918352505060018201546001600160a01b038116602083015260ff600160a01b8204811615156040840152600160a81b909104161515606082015260029091015460809091015292915050565b6003545f908210610cbb5760405162461bcd60e51b8152602060048201526012602482015271496e646578206f7574206f662072616e676560701b604482015260640161028e565b60038281548110610cce57610cce610f74565b5f918252602090912001546001600160a01b031692915050565b5f60208284031215610cf8575f5ffd5b5035919050565b5f60208284031215610d0f575f5ffd5b81356001600160a01b0381168114610d25575f5ffd5b9392505050565b5f81518084528060208401602086015e5f602082860101526020601f19601f83011685010191505092915050565b5f815160a08452610d6e60a0850182610d2c565b6020848101516001600160a01b03169086015260408085015115159086015260608085015115159086015260809384015193909401929092525090919050565b5f602082016020835280845180835260408501915060408160051b8601019250602086015f5b82811015610e0557603f19878603018452610df0858351610d5a565b94506020938401939190910190600101610dd4565b50929695505050505050565b602081525f610d256020830184610d5a565b5f60208284031215610e33575f5ffd5b813560038110610d25575f5ffd5b634e487b7160e01b5f52604160045260245ffd5b5f60208284031215610e65575f5ffd5b813567ffffffffffffffff811115610e7b575f5ffd5b8201601f81018413610e8b575f5ffd5b803567ffffffffffffffff811115610ea557610ea5610e41565b604051601f8201601f19908116603f0116810167ffffffffffffffff81118282101715610ed457610ed4610e41565b604052818152828201602001861015610eeb575f5ffd5b816020840160208301375f91810160200191909152949350505050565b634e487b7160e01b5f52602160045260245ffd5b60038110610f3857634e487b7160e01b5f52602160045260245ffd5b9052565b60208101610f4a8284610f1c565b92915050565b5f60018201610f6d57634e487b7160e01b5f52601160045260245ffd5b5060010190565b634e487b7160e01b5f52603260045260245ffd5b600181811c90821680610f9c57607f821691505b602082108103610fba57634e487b7160e01b5f52602260045260245ffd5b50919050565b60408101610fce8285610f1c565b6001600160a01b039290921660209190910152919050565b601f82111561102d57805f5260205f20601f840160051c8101602085101561100b5750805b601f840160051c820191505b8181101561102a575f8155600101611017565b50505b505050565b815167ffffffffffffffff81111561104c5761104c610e41565b6110608161105a8454610f88565b84610fe6565b6020601f821160018114611092575f831561107b5750848201515b5f19600385901b1c1916600184901b17845561102a565b5f84815260208120601f198516915b828110156110c157878501518255602094850194600190920191016110a1565b50848210156110de57868401515f19600387901b60f8161c191681555b50505050600190811b01905550565b6001600160a01b03831681526040602082018190525f9061111090830184610d2c565b94935050505056fea264697066735822122020a2783f6c127e8674e523c3ef1fabad34d96957e59a6fdb85f2ba35116cbe9c64736f6c634300081c0033",
  "linkReferences": {},
  "deployedLinkReferences": {},
  "immutableReferences": {},
  "inputSourceName": "project/contracts/VotingLogic.sol",
  "buildInfoId": "solc-0_8_28-087aa48bc12732c051cb82b3248b98400b86552b"
}